{
  "contractName": "Migrations",
  "abi": [
    {
      "inputs": [],
      "payable": false,
      "stateMutability": "nonpayable",
      "type": "constructor"
    },
    {
      "constant": true,
      "inputs": [],
      "name": "last_completed_migration",
      "outputs": [
        {
          "internalType": "uint256",
          "name": "",
          "type": "uint256"
        }
      ],
      "payable": false,
      "stateMutability": "view",
      "type": "function"
    },
    {
      "constant": true,
      "inputs": [],
      "name": "owner",
      "outputs": [
        {
          "internalType": "address",
          "name": "",
          "type": "address"
        }
      ],
      "payable": false,
      "stateMutability": "view",
      "type": "function"
    },
    {
      "constant": false,
      "inputs": [
        {
          "internalType": "uint256",
          "name": "completed",
          "type": "uint256"
        }
      ],
      "name": "setCompleted",
      "outputs": [],
      "payable": false,
      "stateMutability": "nonpayable",
      "type": "function"
    },
    {
      "constant": false,
      "inputs": [
        {
          "internalType": "address",
          "name": "new_address",
          "type": "address"
        }
      ],
      "name": "upgrade",
      "outputs": [],
      "payable": false,
      "stateMutability": "nonpayable",
      "type": "function"
    }
  ],
  "bytecode": "0x608060405234801561001057600080fd5b50336000806101000a81548173ffffffffffffffffffffffffffffffffffffffff021916908373ffffffffffffffffffffffffffffffffffffffff1602179055506102b7806100606000396000f3fe608060405234801561001057600080fd5b506004361061004c5760003560e01c80630900f01014610051578063445df0ac146100955780638da5cb5b146100b3578063fdacd576146100fd575b600080fd5b6100936004803603602081101561006757600080fd5b81019080803573ffffffffffffffffffffffffffffffffffffffff16906020019092919050505061012b565b005b61009d6101f7565b6040518082815260200191505060405180910390f35b6100bb6101fd565b604051808273ffffffffffffffffffffffffffffffffffffffff1673ffffffffffffffffffffffffffffffffffffffff16815260200191505060405180910390f35b6101296004803603602081101561011357600080fd5b8101908080359060200190929190505050610222565b005b6000809054906101000a900473ffffffffffffffffffffffffffffffffffffffff1673ffffffffffffffffffffffffffffffffffffffff163373ffffffffffffffffffffffffffffffffffffffff1614156101f45760008190508073ffffffffffffffffffffffffffffffffffffffff1663fdacd5766001546040518263ffffffff1660e01b815260040180828152602001915050600060405180830381600087803b1580156101da57600080fd5b505af11580156101ee573d6000803e3d6000fd5b50505050505b50565b60015481565b6000809054906101000a900473ffffffffffffffffffffffffffffffffffffffff1681565b6000809054906101000a900473ffffffffffffffffffffffffffffffffffffffff1673ffffffffffffffffffffffffffffffffffffffff163373ffffffffffffffffffffffffffffffffffffffff16141561027f57806001819055505b5056fea265627a7a7231582057b8571abbe4ac16b55197aa4fa3d9c0fdc13b469aa0603d3cdf91ce50bbc3f264736f6c63430005100032",
  "source": "pragma solidity >=0.5.0 <0.9.0;\n\ncontract Migrations {\n  address public owner; // Sözleşmenin sahibinin adresini saklar, herkes erişebilir.\n  uint public last_completed_migration; // Son tamamlanan migration (geçiş) kimlik numarasını saklar.\n\n  // Yalnızca sözleşme sahibinin erişebileceği işlevler için modifier\n  modifier restricted() {\n    if (msg.sender == owner) _; // Eğer çağıran adres sözleşme sahibiyse devam et.\n  }\n\n  // Sözleşme oluşturulduğunda çağrılır ve sahibi olarak sözleşmeyi dağıtan adresi ayarlar.\n  constructor() public {\n    owner = msg.sender; // Sözleşmeyi dağıtan adresi sözleşme sahibi olan owner değişkenine ata.\n  }\n\n  // Son tamamlanan migration kimlik numarasını ayarlar. Sadece sözleşme sahibi erişebilir.\n  function setCompleted(uint completed) public restricted {\n    last_completed_migration = completed; // last_completed_migration değişkenini güncelle.\n  }\n\n  // Sözleşmeyi yeni bir adrese yükseltir. Sadece sözleşme sahibi erişebilir.\n  function upgrade(address new_address) public restricted {\n    Migrations upgraded = Migrations(new_address); // Yeni adresle bir Migrations sözleşmesi oluştur.\n    upgraded.setCompleted(last_completed_migration); // Yeni sözleşmede son tamamlanan migration kimlik numarasını ayarla.\n  }\n}\n",
  "sourcePath": "C:\\Users\\furka\\OneDrive\\Belgeler\\Oy_Kullanma\\contracts\\Migrations.sol",
  "compiler": {
    "name": "solc",
    "version": "0.5.16+commit.9c3226ce.Emscripten.clang"
  },
  "schemaVersion": "3.4.16",
  "updatedAt": "2024-05-31T18:44:12.258Z",
  "networkType": "ethereum",
  "devdoc": {
    "methods": {}
  },
  "userdoc": {
    "methods": {}
  }
}